{
  "_format": "hh-sol-artifact-1",
  "contractName": "Tweet",
  "sourceName": "contracts/Tweet.sol",
  "abi": [
    {
      "inputs": [],
      "stateMutability": "nonpayable",
      "type": "constructor"
    },
    {
      "anonymous": false,
      "inputs": [
        {
          "indexed": true,
          "internalType": "address",
          "name": "owner",
          "type": "address"
        },
        {
          "indexed": true,
          "internalType": "address",
          "name": "approved",
          "type": "address"
        },
        {
          "indexed": true,
          "internalType": "uint256",
          "name": "tokenId",
          "type": "uint256"
        }
      ],
      "name": "Approval",
      "type": "event"
    },
    {
      "anonymous": false,
      "inputs": [
        {
          "indexed": true,
          "internalType": "address",
          "name": "owner",
          "type": "address"
        },
        {
          "indexed": true,
          "internalType": "address",
          "name": "operator",
          "type": "address"
        },
        {
          "indexed": false,
          "internalType": "bool",
          "name": "approved",
          "type": "bool"
        }
      ],
      "name": "ApprovalForAll",
      "type": "event"
    },
    {
      "anonymous": false,
      "inputs": [
        {
          "indexed": true,
          "internalType": "address",
          "name": "userAddress",
          "type": "address"
        },
        {
          "indexed": false,
          "internalType": "uint256",
          "name": "tokenId",
          "type": "uint256"
        }
      ],
      "name": "LikeEvent",
      "type": "event"
    },
    {
      "anonymous": false,
      "inputs": [
        {
          "indexed": true,
          "internalType": "address",
          "name": "previousOwner",
          "type": "address"
        },
        {
          "indexed": true,
          "internalType": "address",
          "name": "newOwner",
          "type": "address"
        }
      ],
      "name": "OwnershipTransferred",
      "type": "event"
    },
    {
      "anonymous": false,
      "inputs": [
        {
          "indexed": true,
          "internalType": "address",
          "name": "from",
          "type": "address"
        },
        {
          "indexed": true,
          "internalType": "address",
          "name": "to",
          "type": "address"
        },
        {
          "indexed": true,
          "internalType": "uint256",
          "name": "tokenId",
          "type": "uint256"
        }
      ],
      "name": "Transfer",
      "type": "event"
    },
    {
      "anonymous": false,
      "inputs": [
        {
          "indexed": true,
          "internalType": "address",
          "name": "userAddress",
          "type": "address"
        },
        {
          "indexed": false,
          "internalType": "uint256",
          "name": "tokenId",
          "type": "uint256"
        },
        {
          "indexed": false,
          "internalType": "string",
          "name": "title",
          "type": "string"
        },
        {
          "indexed": false,
          "internalType": "string",
          "name": "body",
          "type": "string"
        },
        {
          "indexed": false,
          "internalType": "string",
          "name": "image",
          "type": "string"
        },
        {
          "indexed": false,
          "internalType": "uint256",
          "name": "createAt",
          "type": "uint256"
        }
      ],
      "name": "TweetEvent",
      "type": "event"
    },
    {
      "inputs": [
        {
          "internalType": "address",
          "name": "to",
          "type": "address"
        },
        {
          "internalType": "uint256",
          "name": "tokenId",
          "type": "uint256"
        }
      ],
      "name": "approve",
      "outputs": [],
      "stateMutability": "nonpayable",
      "type": "function"
    },
    {
      "inputs": [
        {
          "internalType": "address",
          "name": "owner",
          "type": "address"
        }
      ],
      "name": "balanceOf",
      "outputs": [
        {
          "internalType": "uint256",
          "name": "",
          "type": "uint256"
        }
      ],
      "stateMutability": "view",
      "type": "function"
    },
    {
      "inputs": [
        {
          "internalType": "uint256",
          "name": "tokenId",
          "type": "uint256"
        }
      ],
      "name": "getApproved",
      "outputs": [
        {
          "internalType": "address",
          "name": "",
          "type": "address"
        }
      ],
      "stateMutability": "view",
      "type": "function"
    },
    {
      "inputs": [
        {
          "internalType": "address",
          "name": "owner",
          "type": "address"
        },
        {
          "internalType": "address",
          "name": "operator",
          "type": "address"
        }
      ],
      "name": "isApprovedForAll",
      "outputs": [
        {
          "internalType": "bool",
          "name": "",
          "type": "bool"
        }
      ],
      "stateMutability": "view",
      "type": "function"
    },
    {
      "inputs": [
        {
          "internalType": "uint256",
          "name": "_tokenId",
          "type": "uint256"
        }
      ],
      "name": "like",
      "outputs": [],
      "stateMutability": "nonpayable",
      "type": "function"
    },
    {
      "inputs": [
        {
          "internalType": "uint256",
          "name": "",
          "type": "uint256"
        }
      ],
      "name": "likes",
      "outputs": [
        {
          "internalType": "address",
          "name": "",
          "type": "address"
        }
      ],
      "stateMutability": "view",
      "type": "function"
    },
    {
      "inputs": [
        {
          "internalType": "string",
          "name": "_title",
          "type": "string"
        },
        {
          "internalType": "string",
          "name": "_body",
          "type": "string"
        },
        {
          "internalType": "string",
          "name": "_image",
          "type": "string"
        }
      ],
      "name": "mint",
      "outputs": [
        {
          "internalType": "uint256",
          "name": "",
          "type": "uint256"
        }
      ],
      "stateMutability": "nonpayable",
      "type": "function"
    },
    {
      "inputs": [],
      "name": "name",
      "outputs": [
        {
          "internalType": "string",
          "name": "",
          "type": "string"
        }
      ],
      "stateMutability": "view",
      "type": "function"
    },
    {
      "inputs": [],
      "name": "owner",
      "outputs": [
        {
          "internalType": "address",
          "name": "",
          "type": "address"
        }
      ],
      "stateMutability": "view",
      "type": "function"
    },
    {
      "inputs": [
        {
          "internalType": "uint256",
          "name": "tokenId",
          "type": "uint256"
        }
      ],
      "name": "ownerOf",
      "outputs": [
        {
          "internalType": "address",
          "name": "",
          "type": "address"
        }
      ],
      "stateMutability": "view",
      "type": "function"
    },
    {
      "inputs": [],
      "name": "renounceOwnership",
      "outputs": [],
      "stateMutability": "nonpayable",
      "type": "function"
    },
    {
      "inputs": [
        {
          "internalType": "address",
          "name": "from",
          "type": "address"
        },
        {
          "internalType": "address",
          "name": "to",
          "type": "address"
        },
        {
          "internalType": "uint256",
          "name": "tokenId",
          "type": "uint256"
        }
      ],
      "name": "safeTransferFrom",
      "outputs": [],
      "stateMutability": "nonpayable",
      "type": "function"
    },
    {
      "inputs": [
        {
          "internalType": "address",
          "name": "from",
          "type": "address"
        },
        {
          "internalType": "address",
          "name": "to",
          "type": "address"
        },
        {
          "internalType": "uint256",
          "name": "tokenId",
          "type": "uint256"
        },
        {
          "internalType": "bytes",
          "name": "_data",
          "type": "bytes"
        }
      ],
      "name": "safeTransferFrom",
      "outputs": [],
      "stateMutability": "nonpayable",
      "type": "function"
    },
    {
      "inputs": [
        {
          "internalType": "address",
          "name": "operator",
          "type": "address"
        },
        {
          "internalType": "bool",
          "name": "approved",
          "type": "bool"
        }
      ],
      "name": "setApprovalForAll",
      "outputs": [],
      "stateMutability": "nonpayable",
      "type": "function"
    },
    {
      "inputs": [
        {
          "internalType": "bytes4",
          "name": "interfaceId",
          "type": "bytes4"
        }
      ],
      "name": "supportsInterface",
      "outputs": [
        {
          "internalType": "bool",
          "name": "",
          "type": "bool"
        }
      ],
      "stateMutability": "view",
      "type": "function"
    },
    {
      "inputs": [],
      "name": "symbol",
      "outputs": [
        {
          "internalType": "string",
          "name": "",
          "type": "string"
        }
      ],
      "stateMutability": "view",
      "type": "function"
    },
    {
      "inputs": [
        {
          "internalType": "uint256",
          "name": "tokenId",
          "type": "uint256"
        }
      ],
      "name": "tokenURI",
      "outputs": [
        {
          "internalType": "string",
          "name": "",
          "type": "string"
        }
      ],
      "stateMutability": "view",
      "type": "function"
    },
    {
      "inputs": [
        {
          "internalType": "address",
          "name": "from",
          "type": "address"
        },
        {
          "internalType": "address",
          "name": "to",
          "type": "address"
        },
        {
          "internalType": "uint256",
          "name": "tokenId",
          "type": "uint256"
        }
      ],
      "name": "transferFrom",
      "outputs": [],
      "stateMutability": "nonpayable",
      "type": "function"
    },
    {
      "inputs": [
        {
          "internalType": "address",
          "name": "newOwner",
          "type": "address"
        }
      ],
      "name": "transferOwnership",
      "outputs": [],
      "stateMutability": "nonpayable",
      "type": "function"
    },
    {
      "inputs": [
        {
          "internalType": "uint256",
          "name": "",
          "type": "uint256"
        }
      ],
      "name": "tweets",
      "outputs": [
        {
          "internalType": "uint256",
          "name": "id",
          "type": "uint256"
        },
        {
          "internalType": "string",
          "name": "title",
          "type": "string"
        },
        {
          "internalType": "string",
          "name": "body",
          "type": "string"
        },
        {
          "internalType": "string",
          "name": "image",
          "type": "string"
        }
      ],
      "stateMutability": "view",
      "type": "function"
    }
  ],
  "bytecode": "0x60806040523480156200001157600080fd5b506040518060400160405280600581526020017f54776565740000000000000000000000000000000000000000000000000000008152506040518060400160405280600681526020017f7477656574730000000000000000000000000000000000000000000000000000815250816000908051906020019062000096929190620001a6565b508060019080519060200190620000af929190620001a6565b505050620000d2620000c6620000d860201b60201c565b620000e060201b60201c565b620002bb565b600033905090565b6000600660009054906101000a900473ffffffffffffffffffffffffffffffffffffffff16905081600660006101000a81548173ffffffffffffffffffffffffffffffffffffffff021916908373ffffffffffffffffffffffffffffffffffffffff1602179055508173ffffffffffffffffffffffffffffffffffffffff168173ffffffffffffffffffffffffffffffffffffffff167f8be0079c531659141344cd1fd0a4f28419497f9722a3daafe3b4186f6b6457e060405160405180910390a35050565b828054620001b49062000256565b90600052602060002090601f016020900481019282620001d8576000855562000224565b82601f10620001f357805160ff191683800117855562000224565b8280016001018555821562000224579182015b828111156200022357825182559160200191906001019062000206565b5b50905062000233919062000237565b5090565b5b808211156200025257600081600090555060010162000238565b5090565b600060028204905060018216806200026f57607f821691505b602082108114156200028657620002856200028c565b5b50919050565b7f4e487b7100000000000000000000000000000000000000000000000000000000600052602260045260246000fd5b61339880620002cb6000396000f3fe608060405234801561001057600080fd5b506004361061012c5760003560e01c80638da5cb5b116100ad578063d645ddf611610071578063d645ddf614610341578063e82935da14610371578063e8d857b01461038d578063e985e9c5146103c0578063f2fde38b146103f05761012c565b80638da5cb5b1461029d57806395d89b41146102bb578063a22cb465146102d9578063b88d4fde146102f5578063c87b56dd146103115761012c565b806342842e0e116100f457806342842e0e146101e75780636352211e1461020357806370a0823114610233578063715018a6146102635780637e9dffe61461026d5761012c565b806301ffc9a71461013157806306fdde0314610161578063081812fc1461017f578063095ea7b3146101af57806323b872dd146101cb575b600080fd5b61014b6004803603810190610146919061223a565b61040c565b604051610158919061271d565b60405180910390f35b6101696104ee565b6040516101769190612738565b60405180910390f35b61019960048036038101906101949190612323565b610580565b6040516101a691906126b6565b60405180910390f35b6101c960048036038101906101c491906121fe565b610605565b005b6101e560048036038101906101e091906120f8565b61071d565b005b61020160048036038101906101fc91906120f8565b61077d565b005b61021d60048036038101906102189190612323565b61079d565b60405161022a91906126b6565b60405180910390f35b61024d60048036038101906102489190612093565b61084f565b60405161025a919061299a565b60405180910390f35b61026b610907565b005b61028760048036038101906102829190612323565b61098f565b60405161029491906126b6565b60405180910390f35b6102a56109c2565b6040516102b291906126b6565b60405180910390f35b6102c36109ec565b6040516102d09190612738565b60405180910390f35b6102f360048036038101906102ee91906121c2565b610a7e565b005b61030f600480360381019061030a9190612147565b610a94565b005b61032b60048036038101906103269190612323565b610af6565b6040516103389190612738565b60405180910390f35b61035b6004803603810190610356919061228c565b610b9d565b604051610368919061299a565b60405180910390f35b61038b60048036038101906103869190612323565b610ccd565b005b6103a760048036038101906103a29190612323565b610e72565b6040516103b794939291906129b5565b60405180910390f35b6103da60048036038101906103d591906120bc565b61103a565b6040516103e7919061271d565b60405180910390f35b61040a60048036038101906104059190612093565b6110ce565b005b60007f80ac58cd000000000000000000000000000000000000000000000000000000007bffffffffffffffffffffffffffffffffffffffffffffffffffffffff1916827bffffffffffffffffffffffffffffffffffffffffffffffffffffffff191614806104d757507f5b5e139f000000000000000000000000000000000000000000000000000000007bffffffffffffffffffffffffffffffffffffffffffffffffffffffff1916827bffffffffffffffffffffffffffffffffffffffffffffffffffffffff1916145b806104e757506104e6826111c6565b5b9050919050565b6060600080546104fd90612cb2565b80601f016020809104026020016040519081016040528092919081815260200182805461052990612cb2565b80156105765780601f1061054b57610100808354040283529160200191610576565b820191906000526020600020905b81548152906001019060200180831161055957829003601f168201915b5050505050905090565b600061058b82611230565b6105ca576040517f08c379a00000000000000000000000000000000000000000000000000000000081526004016105c1906128da565b60405180910390fd5b6004600083815260200190815260200160002060009054906101000a900473ffffffffffffffffffffffffffffffffffffffff169050919050565b60006106108261079d565b90508073ffffffffffffffffffffffffffffffffffffffff168373ffffffffffffffffffffffffffffffffffffffff161415610681576040517f08c379a00000000000000000000000000000000000000000000000000000000081526004016106789061293a565b60405180910390fd5b8073ffffffffffffffffffffffffffffffffffffffff166106a061129c565b73ffffffffffffffffffffffffffffffffffffffff1614806106cf57506106ce816106c961129c565b61103a565b5b61070e576040517f08c379a00000000000000000000000000000000000000000000000000000000081526004016107059061285a565b60405180910390fd5b61071883836112a4565b505050565b61072e61072861129c565b8261135d565b61076d576040517f08c379a00000000000000000000000000000000000000000000000000000000081526004016107649061295a565b60405180910390fd5b61077883838361143b565b505050565b61079883838360405180602001604052806000815250610a94565b505050565b6000806002600084815260200190815260200160002060009054906101000a900473ffffffffffffffffffffffffffffffffffffffff169050600073ffffffffffffffffffffffffffffffffffffffff168173ffffffffffffffffffffffffffffffffffffffff161415610846576040517f08c379a000000000000000000000000000000000000000000000000000000000815260040161083d9061289a565b60405180910390fd5b80915050919050565b60008073ffffffffffffffffffffffffffffffffffffffff168273ffffffffffffffffffffffffffffffffffffffff1614156108c0576040517f08c379a00000000000000000000000000000000000000000000000000000000081526004016108b79061287a565b60405180910390fd5b600360008373ffffffffffffffffffffffffffffffffffffffff1673ffffffffffffffffffffffffffffffffffffffff168152602001908152602001600020549050919050565b61090f61129c565b73ffffffffffffffffffffffffffffffffffffffff1661092d6109c2565b73ffffffffffffffffffffffffffffffffffffffff1614610983576040517f08c379a000000000000000000000000000000000000000000000000000000000815260040161097a906128fa565b60405180910390fd5b61098d60006116a2565b565b60096020528060005260406000206000915054906101000a900473ffffffffffffffffffffffffffffffffffffffff1681565b6000600660009054906101000a900473ffffffffffffffffffffffffffffffffffffffff16905090565b6060600180546109fb90612cb2565b80601f0160208091040260200160405190810160405280929190818152602001828054610a2790612cb2565b8015610a745780601f10610a4957610100808354040283529160200191610a74565b820191906000526020600020905b815481529060010190602001808311610a5757829003601f168201915b5050505050905090565b610a90610a8961129c565b8383611768565b5050565b610aa5610a9f61129c565b8361135d565b610ae4576040517f08c379a0000000000000000000000000000000000000000000000000000000008152600401610adb9061295a565b60405180910390fd5b610af0848484846118d5565b50505050565b6060610b0182611230565b610b40576040517f08c379a0000000000000000000000000000000000000000000000000000000008152600401610b379061291a565b60405180910390fd5b6000610b4a611931565b90506000815111610b6a5760405180602001604052806000815250610b95565b80610b7484611948565b604051602001610b85929190612692565b6040516020818303038152906040525b915050919050565b600080610baa6007611af5565b9050610bbd610bb761129c565b82611b03565b600060405180608001604052808381526020018781526020018681526020018581525090508060086000848152602001908152602001600020600082015181600001556020820151816001019080519060200190610c1c929190611eb7565b506040820151816002019080519060200190610c39929190611eb7565b506060820151816003019080519060200190610c56929190611eb7565b50905050610c6261129c565b73ffffffffffffffffffffffffffffffffffffffff167fda089787fecd66a2e8cfa838f4d2d33b297ec07c2f07763ecf7a0cc5c1d079bb8388888842604051610caf959493929190612a0f565b60405180910390a2610cc16007611cdd565b81925050509392505050565b6000610cd96007611af5565b9050600073ffffffffffffffffffffffffffffffffffffffff166009600084815260200190815260200160002060009054906101000a900473ffffffffffffffffffffffffffffffffffffffff1673ffffffffffffffffffffffffffffffffffffffff1614610d7d576040517f08c379a0000000000000000000000000000000000000000000000000000000008152600401610d749061297a565b60405180910390fd5b81811015610dc0576040517f08c379a0000000000000000000000000000000000000000000000000000000008152600401610db7906127da565b60405180910390fd5b610dc861129c565b73ffffffffffffffffffffffffffffffffffffffff167f6ed7d07a0ed202b25060ec36c58ef3a2e9a838491fec3861b0bf37651818ee0083604051610e0d919061299a565b60405180910390a2610e1d61129c565b6009600084815260200190815260200160002060006101000a81548173ffffffffffffffffffffffffffffffffffffffff021916908373ffffffffffffffffffffffffffffffffffffffff1602179055505050565b6008602052806000526040600020600091509050806000015490806001018054610e9b90612cb2565b80601f0160208091040260200160405190810160405280929190818152602001828054610ec790612cb2565b8015610f145780601f10610ee957610100808354040283529160200191610f14565b820191906000526020600020905b815481529060010190602001808311610ef757829003601f168201915b505050505090806002018054610f2990612cb2565b80601f0160208091040260200160405190810160405280929190818152602001828054610f5590612cb2565b8015610fa25780601f10610f7757610100808354040283529160200191610fa2565b820191906000526020600020905b815481529060010190602001808311610f8557829003601f168201915b505050505090806003018054610fb790612cb2565b80601f0160208091040260200160405190810160405280929190818152602001828054610fe390612cb2565b80156110305780601f1061100557610100808354040283529160200191611030565b820191906000526020600020905b81548152906001019060200180831161101357829003601f168201915b5050505050905084565b6000600560008473ffffffffffffffffffffffffffffffffffffffff1673ffffffffffffffffffffffffffffffffffffffff16815260200190815260200160002060008373ffffffffffffffffffffffffffffffffffffffff1673ffffffffffffffffffffffffffffffffffffffff16815260200190815260200160002060009054906101000a900460ff16905092915050565b6110d661129c565b73ffffffffffffffffffffffffffffffffffffffff166110f46109c2565b73ffffffffffffffffffffffffffffffffffffffff161461114a576040517f08c379a0000000000000000000000000000000000000000000000000000000008152600401611141906128fa565b60405180910390fd5b600073ffffffffffffffffffffffffffffffffffffffff168173ffffffffffffffffffffffffffffffffffffffff1614156111ba576040517f08c379a00000000000000000000000000000000000000000000000000000000081526004016111b19061277a565b60405180910390fd5b6111c3816116a2565b50565b60007f01ffc9a7000000000000000000000000000000000000000000000000000000007bffffffffffffffffffffffffffffffffffffffffffffffffffffffff1916827bffffffffffffffffffffffffffffffffffffffffffffffffffffffff1916149050919050565b60008073ffffffffffffffffffffffffffffffffffffffff166002600084815260200190815260200160002060009054906101000a900473ffffffffffffffffffffffffffffffffffffffff1673ffffffffffffffffffffffffffffffffffffffff1614159050919050565b600033905090565b816004600083815260200190815260200160002060006101000a81548173ffffffffffffffffffffffffffffffffffffffff021916908373ffffffffffffffffffffffffffffffffffffffff160217905550808273ffffffffffffffffffffffffffffffffffffffff166113178361079d565b73ffffffffffffffffffffffffffffffffffffffff167f8c5be1e5ebec7d5bd14f71427d1e84f3dd0314c0f7b2291e5b200ac8c7c3b92560405160405180910390a45050565b600061136882611230565b6113a7576040517f08c379a000000000000000000000000000000000000000000000000000000000815260040161139e9061283a565b60405180910390fd5b60006113b28361079d565b90508073ffffffffffffffffffffffffffffffffffffffff168473ffffffffffffffffffffffffffffffffffffffff1614806113f457506113f3818561103a565b5b8061143257508373ffffffffffffffffffffffffffffffffffffffff1661141a84610580565b73ffffffffffffffffffffffffffffffffffffffff16145b91505092915050565b8273ffffffffffffffffffffffffffffffffffffffff1661145b8261079d565b73ffffffffffffffffffffffffffffffffffffffff16146114b1576040517f08c379a00000000000000000000000000000000000000000000000000000000081526004016114a89061279a565b60405180910390fd5b600073ffffffffffffffffffffffffffffffffffffffff168273ffffffffffffffffffffffffffffffffffffffff161415611521576040517f08c379a0000000000000000000000000000000000000000000000000000000008152600401611518906127fa565b60405180910390fd5b61152c838383611cf3565b6115376000826112a4565b6001600360008573ffffffffffffffffffffffffffffffffffffffff1673ffffffffffffffffffffffffffffffffffffffff16815260200190815260200160002060008282546115879190612bc8565b925050819055506001600360008473ffffffffffffffffffffffffffffffffffffffff1673ffffffffffffffffffffffffffffffffffffffff16815260200190815260200160002060008282546115de9190612b41565b92505081905550816002600083815260200190815260200160002060006101000a81548173ffffffffffffffffffffffffffffffffffffffff021916908373ffffffffffffffffffffffffffffffffffffffff160217905550808273ffffffffffffffffffffffffffffffffffffffff168473ffffffffffffffffffffffffffffffffffffffff167fddf252ad1be2c89b69c2b068fc378daa952ba7f163c4a11628f55a4df523b3ef60405160405180910390a461169d838383611cf8565b505050565b6000600660009054906101000a900473ffffffffffffffffffffffffffffffffffffffff16905081600660006101000a81548173ffffffffffffffffffffffffffffffffffffffff021916908373ffffffffffffffffffffffffffffffffffffffff1602179055508173ffffffffffffffffffffffffffffffffffffffff168173ffffffffffffffffffffffffffffffffffffffff167f8be0079c531659141344cd1fd0a4f28419497f9722a3daafe3b4186f6b6457e060405160405180910390a35050565b8173ffffffffffffffffffffffffffffffffffffffff168373ffffffffffffffffffffffffffffffffffffffff1614156117d7576040517f08c379a00000000000000000000000000000000000000000000000000000000081526004016117ce9061281a565b60405180910390fd5b80600560008573ffffffffffffffffffffffffffffffffffffffff1673ffffffffffffffffffffffffffffffffffffffff16815260200190815260200160002060008473ffffffffffffffffffffffffffffffffffffffff1673ffffffffffffffffffffffffffffffffffffffff16815260200190815260200160002060006101000a81548160ff0219169083151502179055508173ffffffffffffffffffffffffffffffffffffffff168373ffffffffffffffffffffffffffffffffffffffff167f17307eab39ab6107e8899845ad3d59bd9653f200f220920489ca2b5937696c31836040516118c8919061271d565b60405180910390a3505050565b6118e084848461143b565b6118ec84848484611cfd565b61192b576040517f08c379a00000000000000000000000000000000000000000000000000000000081526004016119229061275a565b60405180910390fd5b50505050565b606060405180602001604052806000815250905090565b60606000821415611990576040518060400160405280600181526020017f30000000000000000000000000000000000000000000000000000000000000008152509050611af0565b600082905060005b600082146119c25780806119ab90612d15565b915050600a826119bb9190612b97565b9150611998565b60008167ffffffffffffffff811115611a04577f4e487b7100000000000000000000000000000000000000000000000000000000600052604160045260246000fd5b6040519080825280601f01601f191660200182016040528015611a365781602001600182028036833780820191505090505b5090505b60008514611ae957600182611a4f9190612bc8565b9150600a85611a5e9190612d5e565b6030611a6a9190612b41565b60f81b818381518110611aa6577f4e487b7100000000000000000000000000000000000000000000000000000000600052603260045260246000fd5b60200101907effffffffffffffffffffffffffffffffffffffffffffffffffffffffffffff1916908160001a905350600a85611ae29190612b97565b9450611a3a565b8093505050505b919050565b600081600001549050919050565b600073ffffffffffffffffffffffffffffffffffffffff168273ffffffffffffffffffffffffffffffffffffffff161415611b73576040517f08c379a0000000000000000000000000000000000000000000000000000000008152600401611b6a906128ba565b60405180910390fd5b611b7c81611230565b15611bbc576040517f08c379a0000000000000000000000000000000000000000000000000000000008152600401611bb3906127ba565b60405180910390fd5b611bc860008383611cf3565b6001600360008473ffffffffffffffffffffffffffffffffffffffff1673ffffffffffffffffffffffffffffffffffffffff1681526020019081526020016000206000828254611c189190612b41565b92505081905550816002600083815260200190815260200160002060006101000a81548173ffffffffffffffffffffffffffffffffffffffff021916908373ffffffffffffffffffffffffffffffffffffffff160217905550808273ffffffffffffffffffffffffffffffffffffffff16600073ffffffffffffffffffffffffffffffffffffffff167fddf252ad1be2c89b69c2b068fc378daa952ba7f163c4a11628f55a4df523b3ef60405160405180910390a4611cd960008383611cf8565b5050565b6001816000016000828254019250508190555050565b505050565b505050565b6000611d1e8473ffffffffffffffffffffffffffffffffffffffff16611e94565b15611e87578373ffffffffffffffffffffffffffffffffffffffff1663150b7a02611d4761129c565b8786866040518563ffffffff1660e01b8152600401611d6994939291906126d1565b602060405180830381600087803b158015611d8357600080fd5b505af1925050508015611db457506040513d601f19601f82011682018060405250810190611db19190612263565b60015b611e37573d8060008114611de4576040519150601f19603f3d011682016040523d82523d6000602084013e611de9565b606091505b50600081511415611e2f576040517f08c379a0000000000000000000000000000000000000000000000000000000008152600401611e269061275a565b60405180910390fd5b805181602001fd5b63150b7a0260e01b7bffffffffffffffffffffffffffffffffffffffffffffffffffffffff1916817bffffffffffffffffffffffffffffffffffffffffffffffffffffffff191614915050611e8c565b600190505b949350505050565b6000808273ffffffffffffffffffffffffffffffffffffffff163b119050919050565b828054611ec390612cb2565b90600052602060002090601f016020900481019282611ee55760008555611f2c565b82601f10611efe57805160ff1916838001178555611f2c565b82800160010185558215611f2c579182015b82811115611f2b578251825591602001919060010190611f10565b5b509050611f399190611f3d565b5090565b5b80821115611f56576000816000905550600101611f3e565b5090565b6000611f6d611f6884612a9c565b612a77565b905082815260208101848484011115611f8557600080fd5b611f90848285612c70565b509392505050565b6000611fab611fa684612acd565b612a77565b905082815260208101848484011115611fc357600080fd5b611fce848285612c70565b509392505050565b600081359050611fe581613306565b92915050565b600081359050611ffa8161331d565b92915050565b60008135905061200f81613334565b92915050565b60008151905061202481613334565b92915050565b600082601f83011261203b57600080fd5b813561204b848260208601611f5a565b91505092915050565b600082601f83011261206557600080fd5b8135612075848260208601611f98565b91505092915050565b60008135905061208d8161334b565b92915050565b6000602082840312156120a557600080fd5b60006120b384828501611fd6565b91505092915050565b600080604083850312156120cf57600080fd5b60006120dd85828601611fd6565b92505060206120ee85828601611fd6565b9150509250929050565b60008060006060848603121561210d57600080fd5b600061211b86828701611fd6565b935050602061212c86828701611fd6565b925050604061213d8682870161207e565b9150509250925092565b6000806000806080858703121561215d57600080fd5b600061216b87828801611fd6565b945050602061217c87828801611fd6565b935050604061218d8782880161207e565b925050606085013567ffffffffffffffff8111156121aa57600080fd5b6121b68782880161202a565b91505092959194509250565b600080604083850312156121d557600080fd5b60006121e385828601611fd6565b92505060206121f485828601611feb565b9150509250929050565b6000806040838503121561221157600080fd5b600061221f85828601611fd6565b92505060206122308582860161207e565b9150509250929050565b60006020828403121561224c57600080fd5b600061225a84828501612000565b91505092915050565b60006020828403121561227557600080fd5b600061228384828501612015565b91505092915050565b6000806000606084860312156122a157600080fd5b600084013567ffffffffffffffff8111156122bb57600080fd5b6122c786828701612054565b935050602084013567ffffffffffffffff8111156122e457600080fd5b6122f086828701612054565b925050604084013567ffffffffffffffff81111561230d57600080fd5b61231986828701612054565b9150509250925092565b60006020828403121561233557600080fd5b60006123438482850161207e565b91505092915050565b61235581612bfc565b82525050565b61236481612c0e565b82525050565b600061237582612afe565b61237f8185612b14565b935061238f818560208601612c7f565b61239881612e4b565b840191505092915050565b60006123ae82612b09565b6123b88185612b25565b93506123c8818560208601612c7f565b6123d181612e4b565b840191505092915050565b60006123e782612b09565b6123f18185612b36565b9350612401818560208601612c7f565b80840191505092915050565b600061241a603283612b25565b915061242582612e5c565b604082019050919050565b600061243d602683612b25565b915061244882612eab565b604082019050919050565b6000612460602583612b25565b915061246b82612efa565b604082019050919050565b6000612483601c83612b25565b915061248e82612f49565b602082019050919050565b60006124a6601183612b25565b91506124b182612f72565b602082019050919050565b60006124c9602483612b25565b91506124d482612f9b565b604082019050919050565b60006124ec601983612b25565b91506124f782612fea565b602082019050919050565b600061250f602c83612b25565b915061251a82613013565b604082019050919050565b6000612532603883612b25565b915061253d82613062565b604082019050919050565b6000612555602a83612b25565b9150612560826130b1565b604082019050919050565b6000612578602983612b25565b915061258382613100565b604082019050919050565b600061259b602083612b25565b91506125a68261314f565b602082019050919050565b60006125be602c83612b25565b91506125c982613178565b604082019050919050565b60006125e1602083612b25565b91506125ec826131c7565b602082019050919050565b6000612604602f83612b25565b915061260f826131f0565b604082019050919050565b6000612627602183612b25565b91506126328261323f565b604082019050919050565b600061264a603183612b25565b91506126558261328e565b604082019050919050565b600061266d600c83612b25565b9150612678826132dd565b602082019050919050565b61268c81612c66565b82525050565b600061269e82856123dc565b91506126aa82846123dc565b91508190509392505050565b60006020820190506126cb600083018461234c565b92915050565b60006080820190506126e6600083018761234c565b6126f3602083018661234c565b6127006040830185612683565b8181036060830152612712818461236a565b905095945050505050565b6000602082019050612732600083018461235b565b92915050565b6000602082019050818103600083015261275281846123a3565b905092915050565b600060208201905081810360008301526127738161240d565b9050919050565b6000602082019050818103600083015261279381612430565b9050919050565b600060208201905081810360008301526127b381612453565b9050919050565b600060208201905081810360008301526127d381612476565b9050919050565b600060208201905081810360008301526127f381612499565b9050919050565b60006020820190508181036000830152612813816124bc565b9050919050565b60006020820190508181036000830152612833816124df565b9050919050565b6000602082019050818103600083015261285381612502565b9050919050565b6000602082019050818103600083015261287381612525565b9050919050565b6000602082019050818103600083015261289381612548565b9050919050565b600060208201905081810360008301526128b38161256b565b9050919050565b600060208201905081810360008301526128d38161258e565b9050919050565b600060208201905081810360008301526128f3816125b1565b9050919050565b60006020820190508181036000830152612913816125d4565b9050919050565b60006020820190508181036000830152612933816125f7565b9050919050565b600060208201905081810360008301526129538161261a565b9050919050565b600060208201905081810360008301526129738161263d565b9050919050565b6000602082019050818103600083015261299381612660565b9050919050565b60006020820190506129af6000830184612683565b92915050565b60006080820190506129ca6000830187612683565b81810360208301526129dc81866123a3565b905081810360408301526129f081856123a3565b90508181036060830152612a0481846123a3565b905095945050505050565b600060a082019050612a246000830188612683565b8181036020830152612a3681876123a3565b90508181036040830152612a4a81866123a3565b90508181036060830152612a5e81856123a3565b9050612a6d6080830184612683565b9695505050505050565b6000612a81612a92565b9050612a8d8282612ce4565b919050565b6000604051905090565b600067ffffffffffffffff821115612ab757612ab6612e1c565b5b612ac082612e4b565b9050602081019050919050565b600067ffffffffffffffff821115612ae857612ae7612e1c565b5b612af182612e4b565b9050602081019050919050565b600081519050919050565b600081519050919050565b600082825260208201905092915050565b600082825260208201905092915050565b600081905092915050565b6000612b4c82612c66565b9150612b5783612c66565b9250827fffffffffffffffffffffffffffffffffffffffffffffffffffffffffffffffff03821115612b8c57612b8b612d8f565b5b828201905092915050565b6000612ba282612c66565b9150612bad83612c66565b925082612bbd57612bbc612dbe565b5b828204905092915050565b6000612bd382612c66565b9150612bde83612c66565b925082821015612bf157612bf0612d8f565b5b828203905092915050565b6000612c0782612c46565b9050919050565b60008115159050919050565b60007fffffffff0000000000000000000000000000000000000000000000000000000082169050919050565b600073ffffffffffffffffffffffffffffffffffffffff82169050919050565b6000819050919050565b82818337600083830152505050565b60005b83811015612c9d578082015181840152602081019050612c82565b83811115612cac576000848401525b50505050565b60006002820490506001821680612cca57607f821691505b60208210811415612cde57612cdd612ded565b5b50919050565b612ced82612e4b565b810181811067ffffffffffffffff82111715612d0c57612d0b612e1c565b5b80604052505050565b6000612d2082612c66565b91507fffffffffffffffffffffffffffffffffffffffffffffffffffffffffffffffff821415612d5357612d52612d8f565b5b600182019050919050565b6000612d6982612c66565b9150612d7483612c66565b925082612d8457612d83612dbe565b5b828206905092915050565b7f4e487b7100000000000000000000000000000000000000000000000000000000600052601160045260246000fd5b7f4e487b7100000000000000000000000000000000000000000000000000000000600052601260045260246000fd5b7f4e487b7100000000000000000000000000000000000000000000000000000000600052602260045260246000fd5b7f4e487b7100000000000000000000000000000000000000000000000000000000600052604160045260246000fd5b6000601f19601f8301169050919050565b7f4552433732313a207472616e7366657220746f206e6f6e20455243373231526560008201527f63656976657220696d706c656d656e7465720000000000000000000000000000602082015250565b7f4f776e61626c653a206e6577206f776e657220697320746865207a65726f206160008201527f6464726573730000000000000000000000000000000000000000000000000000602082015250565b7f4552433732313a207472616e736665722066726f6d20696e636f72726563742060008201527f6f776e6572000000000000000000000000000000000000000000000000000000602082015250565b7f4552433732313a20746f6b656e20616c7265616479206d696e74656400000000600082015250565b7f5477656574206e6f742065786973747321000000000000000000000000000000600082015250565b7f4552433732313a207472616e7366657220746f20746865207a65726f2061646460008201527f7265737300000000000000000000000000000000000000000000000000000000602082015250565b7f4552433732313a20617070726f766520746f2063616c6c657200000000000000600082015250565b7f4552433732313a206f70657261746f7220717565727920666f72206e6f6e657860008201527f697374656e7420746f6b656e0000000000000000000000000000000000000000602082015250565b7f4552433732313a20617070726f76652063616c6c6572206973206e6f74206f7760008201527f6e6572206e6f7220617070726f76656420666f7220616c6c0000000000000000602082015250565b7f4552433732313a2062616c616e636520717565727920666f7220746865207a6560008201527f726f206164647265737300000000000000000000000000000000000000000000602082015250565b7f4552433732313a206f776e657220717565727920666f72206e6f6e657869737460008201527f656e7420746f6b656e0000000000000000000000000000000000000000000000602082015250565b7f4552433732313a206d696e7420746f20746865207a65726f2061646472657373600082015250565b7f4552433732313a20617070726f76656420717565727920666f72206e6f6e657860008201527f697374656e7420746f6b656e0000000000000000000000000000000000000000602082015250565b7f4f776e61626c653a2063616c6c6572206973206e6f7420746865206f776e6572600082015250565b7f4552433732314d657461646174613a2055524920717565727920666f72206e6f60008201527f6e6578697374656e7420746f6b656e0000000000000000000000000000000000602082015250565b7f4552433732313a20617070726f76616c20746f2063757272656e74206f776e6560008201527f7200000000000000000000000000000000000000000000000000000000000000602082015250565b7f4552433732313a207472616e736665722063616c6c6572206973206e6f74206f60008201527f776e6572206e6f7220617070726f766564000000000000000000000000000000602082015250565b7f4c696b6520657869737473210000000000000000000000000000000000000000600082015250565b61330f81612bfc565b811461331a57600080fd5b50565b61332681612c0e565b811461333157600080fd5b50565b61333d81612c1a565b811461334857600080fd5b50565b61335481612c66565b811461335f57600080fd5b5056fea264697066735822122063918f3cce19a36d1e8e466cf4662bc69118b7138e953fd36abd4f01dcc3605a64736f6c63430008040033",
  "linkReferences": {},
  "deployedLinkReferences": {}
}