{
  "_format": "hh-sol-artifact-1",
  "contractName": "Profile",
  "sourceName": "contracts/Profile.sol",
  "abi": [
    {
      "inputs": [],
      "stateMutability": "nonpayable",
      "type": "constructor"
    },
    {
      "anonymous": false,
      "inputs": [
        {
          "indexed": true,
          "internalType": "bytes32",
          "name": "role",
          "type": "bytes32"
        },
        {
          "indexed": true,
          "internalType": "bytes32",
          "name": "previousAdminRole",
          "type": "bytes32"
        },
        {
          "indexed": true,
          "internalType": "bytes32",
          "name": "newAdminRole",
          "type": "bytes32"
        }
      ],
      "name": "RoleAdminChanged",
      "type": "event"
    },
    {
      "anonymous": false,
      "inputs": [
        {
          "indexed": true,
          "internalType": "bytes32",
          "name": "role",
          "type": "bytes32"
        },
        {
          "indexed": true,
          "internalType": "address",
          "name": "account",
          "type": "address"
        },
        {
          "indexed": true,
          "internalType": "address",
          "name": "sender",
          "type": "address"
        }
      ],
      "name": "RoleGranted",
      "type": "event"
    },
    {
      "anonymous": false,
      "inputs": [
        {
          "indexed": true,
          "internalType": "bytes32",
          "name": "role",
          "type": "bytes32"
        },
        {
          "indexed": true,
          "internalType": "address",
          "name": "account",
          "type": "address"
        },
        {
          "indexed": true,
          "internalType": "address",
          "name": "sender",
          "type": "address"
        }
      ],
      "name": "RoleRevoked",
      "type": "event"
    },
    {
      "anonymous": false,
      "inputs": [
        {
          "indexed": true,
          "internalType": "address",
          "name": "userAddress",
          "type": "address"
        },
        {
          "indexed": false,
          "internalType": "uint256",
          "name": "userId",
          "type": "uint256"
        }
      ],
      "name": "UserNew",
      "type": "event"
    },
    {
      "inputs": [],
      "name": "DEFAULT_ADMIN_ROLE",
      "outputs": [
        {
          "internalType": "bytes32",
          "name": "",
          "type": "bytes32"
        }
      ],
      "stateMutability": "view",
      "type": "function"
    },
    {
      "inputs": [],
      "name": "countUsers",
      "outputs": [
        {
          "internalType": "uint256",
          "name": "_value",
          "type": "uint256"
        }
      ],
      "stateMutability": "view",
      "type": "function"
    },
    {
      "inputs": [
        {
          "internalType": "string",
          "name": "_name",
          "type": "string"
        },
        {
          "internalType": "string",
          "name": "_image",
          "type": "string"
        }
      ],
      "name": "createProfile",
      "outputs": [],
      "stateMutability": "nonpayable",
      "type": "function"
    },
    {
      "inputs": [
        {
          "internalType": "bytes32",
          "name": "role",
          "type": "bytes32"
        }
      ],
      "name": "getRoleAdmin",
      "outputs": [
        {
          "internalType": "bytes32",
          "name": "",
          "type": "bytes32"
        }
      ],
      "stateMutability": "view",
      "type": "function"
    },
    {
      "inputs": [
        {
          "internalType": "address",
          "name": "_userAddress",
          "type": "address"
        }
      ],
      "name": "getUserProfile",
      "outputs": [
        {
          "internalType": "uint256",
          "name": "",
          "type": "uint256"
        },
        {
          "internalType": "string",
          "name": "",
          "type": "string"
        },
        {
          "internalType": "address",
          "name": "",
          "type": "address"
        },
        {
          "internalType": "string",
          "name": "",
          "type": "string"
        }
      ],
      "stateMutability": "view",
      "type": "function"
    },
    {
      "inputs": [
        {
          "internalType": "bytes32",
          "name": "role",
          "type": "bytes32"
        },
        {
          "internalType": "address",
          "name": "account",
          "type": "address"
        }
      ],
      "name": "grantRole",
      "outputs": [],
      "stateMutability": "nonpayable",
      "type": "function"
    },
    {
      "inputs": [
        {
          "internalType": "bytes32",
          "name": "role",
          "type": "bytes32"
        },
        {
          "internalType": "address",
          "name": "account",
          "type": "address"
        }
      ],
      "name": "hasRole",
      "outputs": [
        {
          "internalType": "bool",
          "name": "",
          "type": "bool"
        }
      ],
      "stateMutability": "view",
      "type": "function"
    },
    {
      "inputs": [
        {
          "internalType": "bytes32",
          "name": "role",
          "type": "bytes32"
        },
        {
          "internalType": "address",
          "name": "account",
          "type": "address"
        }
      ],
      "name": "renounceRole",
      "outputs": [],
      "stateMutability": "nonpayable",
      "type": "function"
    },
    {
      "inputs": [
        {
          "internalType": "bytes32",
          "name": "role",
          "type": "bytes32"
        },
        {
          "internalType": "address",
          "name": "account",
          "type": "address"
        }
      ],
      "name": "revokeRole",
      "outputs": [],
      "stateMutability": "nonpayable",
      "type": "function"
    },
    {
      "inputs": [
        {
          "internalType": "bytes4",
          "name": "interfaceId",
          "type": "bytes4"
        }
      ],
      "name": "supportsInterface",
      "outputs": [
        {
          "internalType": "bool",
          "name": "",
          "type": "bool"
        }
      ],
      "stateMutability": "view",
      "type": "function"
    },
    {
      "inputs": [
        {
          "internalType": "address",
          "name": "",
          "type": "address"
        }
      ],
      "name": "users",
      "outputs": [
        {
          "internalType": "uint256",
          "name": "userId",
          "type": "uint256"
        },
        {
          "internalType": "address",
          "name": "account",
          "type": "address"
        },
        {
          "internalType": "string",
          "name": "name",
          "type": "string"
        },
        {
          "internalType": "string",
          "name": "image",
          "type": "string"
        }
      ],
      "stateMutability": "view",
      "type": "function"
    }
  ],
  "bytecode": "0x608060405234801561001057600080fd5b50611bb2806100206000396000f3fe608060405234801561001057600080fd5b50600436106100a95760003560e01c8063987ee15611610071578063987ee15614610176578063a217fddf146101a9578063a87430ba146101c7578063ba1feb8a146101fa578063d547741f14610216578063f8fb1d0f14610232576100a9565b806301ffc9a7146100ae578063248a9ca3146100de5780632f2ff15d1461010e57806336568abe1461012a57806391d1485414610146575b600080fd5b6100c860048036038101906100c3919061138f565b610250565b6040516100d591906115b3565b60405180910390f35b6100f860048036038101906100f3919061132a565b6102ca565b60405161010591906115ce565b60405180910390f35b61012860048036038101906101239190611353565b6102e9565b005b610144600480360381019061013f9190611353565b61030a565b005b610160600480360381019061015b9190611353565b61038d565b60405161016d91906115b3565b60405180910390f35b610190600480360381019061018b9190611301565b6103f7565b6040516101a094939291906116d9565b60405180910390f35b6101b1610650565b6040516101be91906115ce565b60405180910390f35b6101e160048036038101906101dc9190611301565b610657565b6040516101f19493929190611686565b60405180910390f35b610214600480360381019061020f91906113b8565b6107b7565b005b610230600480360381019061022b9190611353565b610b88565b005b61023a610ba9565b604051610247919061166b565b60405180910390f35b60007f7965db0b000000000000000000000000000000000000000000000000000000007bffffffffffffffffffffffffffffffffffffffffffffffffffffffff1916827bffffffffffffffffffffffffffffffffffffffffffffffffffffffff191614806102c357506102c282610bb5565b5b9050919050565b6000806000838152602001908152602001600020600101549050919050565b6102f2826102ca565b6102fb81610c1f565b6103058383610c33565b505050565b610312610d13565b73ffffffffffffffffffffffffffffffffffffffff168173ffffffffffffffffffffffffffffffffffffffff161461037f576040517f08c379a00000000000000000000000000000000000000000000000000000000081526004016103769061164b565b60405180910390fd5b6103898282610d1b565b5050565b600080600084815260200190815260200160002060000160008373ffffffffffffffffffffffffffffffffffffffff1673ffffffffffffffffffffffffffffffffffffffff16815260200190815260200160002060009054906101000a900460ff16905092915050565b6000606060006060600160008673ffffffffffffffffffffffffffffffffffffffff1673ffffffffffffffffffffffffffffffffffffffff16815260200190815260200160002060000154600160008773ffffffffffffffffffffffffffffffffffffffff1673ffffffffffffffffffffffffffffffffffffffff168152602001908152602001600020600201600160008873ffffffffffffffffffffffffffffffffffffffff1673ffffffffffffffffffffffffffffffffffffffff16815260200190815260200160002060010160009054906101000a900473ffffffffffffffffffffffffffffffffffffffff16600160008973ffffffffffffffffffffffffffffffffffffffff1673ffffffffffffffffffffffffffffffffffffffff16815260200190815260200160002060030182805461053590611943565b80601f016020809104026020016040519081016040528092919081815260200182805461056190611943565b80156105ae5780601f10610583576101008083540402835291602001916105ae565b820191906000526020600020905b81548152906001019060200180831161059157829003601f168201915b505050505092508080546105c190611943565b80601f01602080910402602001604051908101604052809291908181526020018280546105ed90611943565b801561063a5780601f1061060f5761010080835404028352916020019161063a565b820191906000526020600020905b81548152906001019060200180831161061d57829003601f168201915b5050505050905093509350935093509193509193565b6000801b81565b60016020528060005260406000206000915090508060000154908060010160009054906101000a900473ffffffffffffffffffffffffffffffffffffffff16908060020180546106a690611943565b80601f01602080910402602001604051908101604052809291908181526020018280546106d290611943565b801561071f5780601f106106f45761010080835404028352916020019161071f565b820191906000526020600020905b81548152906001019060200180831161070257829003601f168201915b50505050509080600301805461073490611943565b80601f016020809104026020016040519081016040528092919081815260200182805461076090611943565b80156107ad5780601f10610782576101008083540402835291602001916107ad565b820191906000526020600020905b81548152906001019060200180831161079057829003601f168201915b5050505050905084565b6000600160006107c5610d13565b73ffffffffffffffffffffffffffffffffffffffff1673ffffffffffffffffffffffffffffffffffffffff168152602001908152602001600020604051806080016040529081600082015481526020016001820160009054906101000a900473ffffffffffffffffffffffffffffffffffffffff1673ffffffffffffffffffffffffffffffffffffffff1673ffffffffffffffffffffffffffffffffffffffff16815260200160028201805461087a90611943565b80601f01602080910402602001604051908101604052809291908181526020018280546108a690611943565b80156108f35780601f106108c8576101008083540402835291602001916108f3565b820191906000526020600020905b8154815290600101906020018083116108d657829003601f168201915b5050505050815260200160038201805461090c90611943565b80601f016020809104026020016040519081016040528092919081815260200182805461093890611943565b80156109855780601f1061095a57610100808354040283529160200191610985565b820191906000526020600020905b81548152906001019060200180831161096857829003601f168201915b5050505050815250509050600073ffffffffffffffffffffffffffffffffffffffff16816020015173ffffffffffffffffffffffffffffffffffffffff1614610a03576040517f08c379a00000000000000000000000000000000000000000000000000000000081526004016109fa9061162b565b60405180910390fd5b610a0d6002610dfc565b6000610a196002610e12565b90506040518060800160405280828152602001610a34610d13565b73ffffffffffffffffffffffffffffffffffffffff1681526020018581526020018481525060016000610a65610d13565b73ffffffffffffffffffffffffffffffffffffffff1673ffffffffffffffffffffffffffffffffffffffff1681526020019081526020016000206000820151816000015560208201518160010160006101000a81548173ffffffffffffffffffffffffffffffffffffffff021916908373ffffffffffffffffffffffffffffffffffffffff1602179055506040820151816002019080519060200190610b0c9291906111b7565b506060820151816003019080519060200190610b299291906111b7565b50905050610b35610d13565b73ffffffffffffffffffffffffffffffffffffffff167f95db3881047699907bc3a19d5576c9283ce3d753d724d1b3367835165eeebd3b82604051610b7a919061166b565b60405180910390a250505050565b610b91826102ca565b610b9a81610c1f565b610ba48383610d1b565b505050565b60028060000154905081565b60007f01ffc9a7000000000000000000000000000000000000000000000000000000007bffffffffffffffffffffffffffffffffffffffffffffffffffffffff1916827bffffffffffffffffffffffffffffffffffffffffffffffffffffffff1916149050919050565b610c3081610c2b610d13565b610e20565b50565b610c3d828261038d565b610d0f57600160008084815260200190815260200160002060000160008373ffffffffffffffffffffffffffffffffffffffff1673ffffffffffffffffffffffffffffffffffffffff16815260200190815260200160002060006101000a81548160ff021916908315150217905550610cb4610d13565b73ffffffffffffffffffffffffffffffffffffffff168173ffffffffffffffffffffffffffffffffffffffff16837f2f8788117e7eff1d82e926ec794901d17c78024a50270940304540a733656f0d60405160405180910390a45b5050565b600033905090565b610d25828261038d565b15610df857600080600084815260200190815260200160002060000160008373ffffffffffffffffffffffffffffffffffffffff1673ffffffffffffffffffffffffffffffffffffffff16815260200190815260200160002060006101000a81548160ff021916908315150217905550610d9d610d13565b73ffffffffffffffffffffffffffffffffffffffff168173ffffffffffffffffffffffffffffffffffffffff16837ff6391f5c32d9c69d2a47ea670b442974b53935d1edc7fd64eb21e047a839171b60405160405180910390a45b5050565b6001816000016000828254019250508190555050565b600081600001549050919050565b610e2a828261038d565b610eb957610e4f8173ffffffffffffffffffffffffffffffffffffffff166014610ebd565b610e5d8360001c6020610ebd565b604051602001610e6e929190611579565b6040516020818303038152906040526040517f08c379a0000000000000000000000000000000000000000000000000000000008152600401610eb091906115e9565b60405180910390fd5b5050565b606060006002836002610ed091906117ff565b610eda91906117a9565b67ffffffffffffffff811115610f19577f4e487b7100000000000000000000000000000000000000000000000000000000600052604160045260246000fd5b6040519080825280601f01601f191660200182016040528015610f4b5781602001600182028036833780820191505090505b5090507f300000000000000000000000000000000000000000000000000000000000000081600081518110610fa9577f4e487b7100000000000000000000000000000000000000000000000000000000600052603260045260246000fd5b60200101907effffffffffffffffffffffffffffffffffffffffffffffffffffffffffffff1916908160001a9053507f780000000000000000000000000000000000000000000000000000000000000081600181518110611033577f4e487b7100000000000000000000000000000000000000000000000000000000600052603260045260246000fd5b60200101907effffffffffffffffffffffffffffffffffffffffffffffffffffffffffffff1916908160001a9053506000600184600261107391906117ff565b61107d91906117a9565b90505b6001811115611169577f3031323334353637383961626364656600000000000000000000000000000000600f8616601081106110e5577f4e487b7100000000000000000000000000000000000000000000000000000000600052603260045260246000fd5b1a60f81b828281518110611122577f4e487b7100000000000000000000000000000000000000000000000000000000600052603260045260246000fd5b60200101907effffffffffffffffffffffffffffffffffffffffffffffffffffffffffffff1916908160001a905350600485901c94508061116290611919565b9050611080565b50600084146111ad576040517f08c379a00000000000000000000000000000000000000000000000000000000081526004016111a49061160b565b60405180910390fd5b8091505092915050565b8280546111c390611943565b90600052602060002090601f0160209004810192826111e5576000855561122c565b82601f106111fe57805160ff191683800117855561122c565b8280016001018555821561122c579182015b8281111561122b578251825591602001919060010190611210565b5b509050611239919061123d565b5090565b5b8082111561125657600081600090555060010161123e565b5090565b600061126d61126884611751565b61172c565b90508281526020810184848401111561128557600080fd5b6112908482856118d7565b509392505050565b6000813590506112a781611b37565b92915050565b6000813590506112bc81611b4e565b92915050565b6000813590506112d181611b65565b92915050565b600082601f8301126112e857600080fd5b81356112f884826020860161125a565b91505092915050565b60006020828403121561131357600080fd5b600061132184828501611298565b91505092915050565b60006020828403121561133c57600080fd5b600061134a848285016112ad565b91505092915050565b6000806040838503121561136657600080fd5b6000611374858286016112ad565b925050602061138585828601611298565b9150509250929050565b6000602082840312156113a157600080fd5b60006113af848285016112c2565b91505092915050565b600080604083850312156113cb57600080fd5b600083013567ffffffffffffffff8111156113e557600080fd5b6113f1858286016112d7565b925050602083013567ffffffffffffffff81111561140e57600080fd5b61141a858286016112d7565b9150509250929050565b61142d81611859565b82525050565b61143c8161186b565b82525050565b61144b81611877565b82525050565b600061145c82611782565b611466818561178d565b93506114768185602086016118e6565b61147f81611a33565b840191505092915050565b600061149582611782565b61149f818561179e565b93506114af8185602086016118e6565b80840191505092915050565b60006114c860208361178d565b91506114d382611a44565b602082019050919050565b60006114eb600c8361178d565b91506114f682611a6d565b602082019050919050565b600061150e60178361179e565b915061151982611a96565b601782019050919050565b600061153160118361179e565b915061153c82611abf565b601182019050919050565b6000611554602f8361178d565b915061155f82611ae8565b604082019050919050565b611573816118cd565b82525050565b600061158482611501565b9150611590828561148a565b915061159b82611524565b91506115a7828461148a565b91508190509392505050565b60006020820190506115c86000830184611433565b92915050565b60006020820190506115e36000830184611442565b92915050565b600060208201905081810360008301526116038184611451565b905092915050565b60006020820190508181036000830152611624816114bb565b9050919050565b60006020820190508181036000830152611644816114de565b9050919050565b6000602082019050818103600083015261166481611547565b9050919050565b6000602082019050611680600083018461156a565b92915050565b600060808201905061169b600083018761156a565b6116a86020830186611424565b81810360408301526116ba8185611451565b905081810360608301526116ce8184611451565b905095945050505050565b60006080820190506116ee600083018761156a565b81810360208301526117008186611451565b905061170f6040830185611424565b81810360608301526117218184611451565b905095945050505050565b6000611736611747565b90506117428282611975565b919050565b6000604051905090565b600067ffffffffffffffff82111561176c5761176b611a04565b5b61177582611a33565b9050602081019050919050565b600081519050919050565b600082825260208201905092915050565b600081905092915050565b60006117b4826118cd565b91506117bf836118cd565b9250827fffffffffffffffffffffffffffffffffffffffffffffffffffffffffffffffff038211156117f4576117f36119a6565b5b828201905092915050565b600061180a826118cd565b9150611815836118cd565b9250817fffffffffffffffffffffffffffffffffffffffffffffffffffffffffffffffff048311821515161561184e5761184d6119a6565b5b828202905092915050565b6000611864826118ad565b9050919050565b60008115159050919050565b6000819050919050565b60007fffffffff0000000000000000000000000000000000000000000000000000000082169050919050565b600073ffffffffffffffffffffffffffffffffffffffff82169050919050565b6000819050919050565b82818337600083830152505050565b60005b838110156119045780820151818401526020810190506118e9565b83811115611913576000848401525b50505050565b6000611924826118cd565b91506000821415611938576119376119a6565b5b600182039050919050565b6000600282049050600182168061195b57607f821691505b6020821081141561196f5761196e6119d5565b5b50919050565b61197e82611a33565b810181811067ffffffffffffffff8211171561199d5761199c611a04565b5b80604052505050565b7f4e487b7100000000000000000000000000000000000000000000000000000000600052601160045260246000fd5b7f4e487b7100000000000000000000000000000000000000000000000000000000600052602260045260246000fd5b7f4e487b7100000000000000000000000000000000000000000000000000000000600052604160045260246000fd5b6000601f19601f8301169050919050565b7f537472696e67733a20686578206c656e67746820696e73756666696369656e74600082015250565b7f5573657220657869737473210000000000000000000000000000000000000000600082015250565b7f416363657373436f6e74726f6c3a206163636f756e7420000000000000000000600082015250565b7f206973206d697373696e6720726f6c6520000000000000000000000000000000600082015250565b7f416363657373436f6e74726f6c3a2063616e206f6e6c792072656e6f756e636560008201527f20726f6c657320666f722073656c660000000000000000000000000000000000602082015250565b611b4081611859565b8114611b4b57600080fd5b50565b611b5781611877565b8114611b6257600080fd5b50565b611b6e81611881565b8114611b7957600080fd5b5056fea2646970667358221220731382724ea09271dc63e668b10b10a5d1f0c5550926a051d705e832ca4cd9b864736f6c63430008040033",
  "linkReferences": {},
  "deployedLinkReferences": {}
}